:100000001CC023C022C021C020C01FC01EC01DC0F4
:100010001CC01BC01AC019C018C017C016C015C01C
:1000200014C013C012C011C010C00FC00EC00DC04C
:100030000CC00BC032363231390011241FBECFEF55
:10004000D4E0DEBFCDBF0ED023C0DACF189B02C0F4
:1000500080E0089580ED97E00197F1F783B18095F6
:10006000817008950F931F930FD011E002E0EEDF2F
:10007000882311F410E0FBCF812F11E08823B9F71A
:1000800085B1802785B9F3CF2098289A219A0895C1
:04009000F894FFCF12
:00000001FF
