:1000000019C033C032C031C030C02FC02EC02DC087
:100010002CC02BC02AC029C028C027C026C025C09C
:1000200024C023C022C021C020C01FC01EC01DC0CC
:100030001CC01BC011241FBECFEFD4E0DEBFCDBF5C
:1000400012E0A0E0B1E0E6E4F4E102C005900D9218
:10005000AC30B107D9F712E0ACE0B2E001C01D92BC
:10006000AA31B107E1F7D5D4ECC9CACF282F229520
:100070002F709AE0299F900111248F70820F0895AC
:10008000482F6AE0B6D6282F30E084E0220F331FD5
:100090008A95E1F7842FADD6892F822B089523B15D
:1000A000A82FB0E030E020953095082E02C035959D
:1000B00027950A94E2F720FF1EC084EF91E028EC18
:1000C00030E0F9013197F1F70197D9F783B190E06A
:1000D000809590950A2E02C0959587950A94E2F72F
:1000E00080FF0EC0FD01E45FFD4F8081882341F455
:1000F00081E080830895A45FBD4F1C9280E0089545
:1001000080E008951F93DF93CF93CDB7DEB72C9790
:100110000FB6F894DEBF0FBECDBFDE011196E0E052
:10012000F2E08CE001900D928150E1F71092140200
:10013000809115028F5F809315028C33F0F110923D
:100140001502809116028F5F809316028831A8F104
:1001500010921602409118024F5F409318021091BE
:100160001702212F30E0C90183709070892B29F488
:10017000812F64E63ED6992331F4C90160E971E02C
:1001800058D6892B11F48DE18A8390911302FE01D8
:10019000E90FF11D8181841730F481E0809318020A
:1001A0009F5F90931302809113028C3030F081E0B6
:1001B000809313021F5F109317022C960FB6F894CA
:1001C000DEBF0FBECDBFCF91DF911F91089560E0DC
:1001D00020E030E040E050E080917A00806C809335
:1001E0007A0080917A0086FDFCCF80917800909112
:1001F0007900A0E0B0E0280F391F4A1F5B1F6F5F36
:10020000603851F795E056954795379527959A951B
:10021000D1F72454354040405040CA01B9012BE188
:1002200030E040E050E0C6D52AE030E040E050E069
:1002300013D6C9010895AF92BF92DF92EF92FF9259
:100240000F931F93DF93CF93CDB7DEB760970FB6B1
:10025000F894DEBF0FBECDBFD82E5B01BED48DB7E4
:100260009EB708970FB6F8949EBF0FBE8DBFEDB72F
:10027000FEB731968E010F5F1F4FADB7BEB7129616
:100280001C930E93119728E0E22EF12CF382E28268
:1002900080E091E095838483D6821782FFD58DB765
:1002A0009EB708960FB6F8949EBF0FBE8DBF80E034
:1002B00061E0D4D4C801E7D488E061E0CFD4ADB721
:1002C000BEB71A970FB6F894BEBF0FBEADBFEDB75D
:1002D000FEB7319612961C930E931197F382E28229
:1002E00089E091E095838483C5016AE070E08DD553
:1002F00077836683C5016AE070E087D59187808740
:10030000CDD58DB79EB70A960FB6F8949EBF0FBE97
:100310008DBFC801B8D480E062E0A0D4ADB7BEB74D
:1003200050970FB6F894BEBF0FBEADBFEDB7FEB786
:10033000319612961C930E93119780E190E093836F
:10034000828381E191E09583848380911802868382
:10035000178280911302808711868091170282870D
:1003600013868091160284871586809115028687F0
:10037000178694D58DB79EB740960FB6F8949EBF5A
:100380000FBE8DBFC8017FD460960FB6F894DEBF54
:100390000FBECDBFCF91DF911F910F91FF90EF90D6
:1003A000DF90BF90AF900895BF92CF92DF92EF920F
:1003B000FF920F931F93DF93CF93CDB7DEB72897AC
:1003C0000FB6F894DEBF0FBECDBFB82E6B0105D4BB
:1003D0008BE291E058D48DB79EB708970FB6F8948A
:1003E0009EBF0FBE8DBFEDB7FEB731968E010F5F7A
:1003F0001F4FADB7BEB712961C930E93119738E0FE
:10040000E32EF12CF382E28280E091E095838483F5
:10041000B682178243D58DB79EB708960FB6F8946B
:100420009EBF0FBE8DBF80E062E018D4C8012BD400
:10043000ADB7BEB71A970FB6F894BEBF0FBEADBF2B
:10044000EDB7FEB7319612961C930E931197F38277
:10045000E28289E091E095838483C6016AE070E0DE
:10046000D4D477836683C6016AE070E0CED49187E6
:10047000808714D58DB79EB70A960FB6F8949EBFA5
:100480000FBE8DBF88E062E0E9D3C801FCD3289697
:100490000FB6F894DEBF0FBECDBFCF91DF911F9195
:1004A0000F91FF90EF90DF90CF90BF900895CF9283
:1004B000DF92EF92FF920F931F93DF93CF93CDB70D
:1004C000DEB760970FB6F894DEBF0FBECDBF6C01EC
:1004D0008DB79EB70E970FB6F8949EBF0FBE8DBF17
:1004E000EDB7FEB731968E010F5F1F4FADB7BEB7A8
:1004F00012961C930E93119740E1E42EF12CF38297
:10050000E2828CE391E09583848380911602868356
:10051000178280911502808711868091140282874C
:1005200013868091170284871586B8D48DB79EB73D
:100530000E960FB6F8949EBF0FBE8DBF4ED3C80166
:10054000A2D3ADB7BEB71E970FB6F894BEBF0FBE0D
:10055000ADBFEDB7FEB7319612961C930E9311976F
:10056000F382E28283E591E095838483809118028F
:10057000868317828091130280871186C6016AE004
:1005800070E043D473876287C6016AE070E03DD4AF
:100590009587848783D48DB79EB70E960FB6F8944F
:1005A0009EBF0FBE8DBF80E062E058D3C8016BD301
:1005B00060960FB6F894DEBF0FBECDBFCF91DF912E
:1005C0001F910F91FF90EF90DF90CF900895FF92D1
:1005D0000F931F93F82E092F162F80EAB7D3882385
:1005E00039F4812FB6D3802FB4D38F2DB2D3DAD381
:1005F00080E29EE40197F1F71F910F91FF9008951B
:100600000F931F93082F162F80EAA0D3882329F475
:10061000812F9FD3802F9DD3C5D380E29EE4019785
:10062000F1F71F910F9108950F931F93182F062F25
:1006300080ED8CD3882329F4812F8BD3802F89D30D
:10064000B1D31F910F9108951F93182F80EA7ED385
:10065000882319F4812F7DD3A5D381EA8CD38823F5
:1006600019F48CD3182F94D3312F20E0280F311D8B
:10067000C9011F9108951F93182F80EA67D388231B
:1006800011F010E007C0812F64D381EA74D380D3C6
:10069000182F88D3812F1F910895BF92CF92DF9298
:1006A000EF92FF920F931F93DF93CF93CDB7DEB7F7
:1006B00060970FB6F894DEBF0FBECDBF80E0DBDFE2
:1006C000B82E81E0D8DF8093170282E0D4DF8093D8
:1006D000130283E0D0DF8093180284E0CCDF8093A4
:1006E000160285E0C8DF8093150286E0ADDF6C015D
:1006F00074D28DB79EB708970FB6F8949EBF0FBE01
:100700008DBFEDB7FEB731968E010F5F1F4FADB7AE
:10071000BEB712961C930E93119760E1E62EF12C52
:10072000F382E28286E691E095838483B682178223
:10073000B5D38DB79EB708960FB6F8949EBF0FBE7F
:100740008DBF80E061E08AD2C8019DD280E062E086
:1007500085D2ADB7BEB750970FB6F894BEBF0FBEE7
:10076000ADBFEDB7FEB7319612961C930E9311975D
:10077000F382E28281E791E095838483809118027D
:1007800086831782809113028087118680911702D9
:1007900082871386809116028487158680911502C0
:1007A000868717867BD38DB79EB740960FB6F89491
:1007B0009EBF0FBE8DBFC80166D280E05CDF88237C
:1007C00071F40BD28BE891E05ED280E197E228ECE5
:1007D00030E0F9013197F1F70197D9F744C001E012
:1007E00058ECE52EF12C81E05ADC882309F03BC05F
:1007F00056DC882399F0B01688F084EF91E0F70179
:100800003197F1F70197D9F7802FB60114DD0F5F0B
:1008100079DC802F880F8C5F17DF6C0118991EC060
:1008200019991CC08CEB92E0F7013197F1F7019711
:10083000D9F7189913C0199911C080E060E0E0DE83
:10084000CCD188E991E01FD280E197E228EC30E03A
:10085000F9013197F1F70197D9F705C081E01FDC65
:10086000882309F4C0CF60960FB6F894DEBF0FBEA0
:10087000CDBFCF91DF911F910F91FF90EF90DF904F
:10088000CF90BF9008951F9380ED60D2882311F020
:1008900081E056C080E05DD280ED6DD26FD2282F0E
:1008A0002F7722952F701AE0219F900111248F70CD
:1008B000820F8093140262D2282F22952F70219FDD
:1008C000900111248F70820F8093150257D2282F28
:1008D0002F7322952F70219F900111248F70820F0A
:1008E000809316024BD2282F22952F70219F9001C2
:1008F00011248F70820F8093190240D2282F2295E5
:100900002F70219F900111248F70820F8093180205
:1009100035D2282F22952F70219F900111248F709E
:10092000820F8093130234D2282F22952F70219F9B
:10093000900111248F70820F8093170233D280E0D0
:100940001F9108950F931F93CF93DF9346D180E0BB
:1009500092DE882369F085EA91E095D180E197E203
:1009600028EC30E0F9013197F1F70197D9F74CC045
:100970002EDCEC0181E060E043DE8091170261E053
:100980003FDE8091130262E03BDE8091180263E05B
:1009900037DE8091160264E033DE8091150265E057
:1009A0002FDECE0166E013DE81E0BE01FDDC01E05A
:1009B00011E069DF80911402882311F010E00FC06C
:1009C000112361F40F5F802F60E01ADE602F70E06A
:1009D0006E5F7F4F660F771FCE01F9DD11E0F7DB09
:1009E000EC01802FBE01E0DC18990CC019990AC0F7
:1009F0008CEB92E028EC30E0F9013197F1F70197A8
:100A0000D9F702C00D37A9F6DF91CF911F910F9151
:100A100008950F931F93CF93DF93B3D0E5D081E078
:100A20006AE082D188EC80937C0086E080937A0033
:100A300080917A00806C80937A0028EE33E0C8ECD5
:100A4000D0E009C0CE010197F1F72150304003C03A
:100A500028EE33E0F7CF21153105A1F7B8DB8C0183
:100A600012DFC80124DD80E01ADB882361F015DE87
:100A7000B4D086EB91E007D180E197E2FE01319797
:100A8000F1F70197D9F781E00ADB882309F35ADFF0
:100A9000A4D081EC91E0F7D080E197E2FE0131979C
:100AA000F1F70197D9F7D4CF1F93182F80ED4ED1CE
:100AB000882311F010E007C0812F4BD180ED5BD16E
:100AC00067D1182F6FD1812F1F9108951F9380E058
:100AD000EBDF182F80ED3AD1882311F081E027C099
:100AE00080E037D117FF05C080911402C9DA806811
:100AF00004C080911402C4DA8F772BD18091150243
:100B0000BFDA27D180911602BBDA23D18091190276
:100B100020D180911802B4DA1CD180911302B0DA8E
:100B200018D180911702ACDA14D13CD180E01F912A
:100B300008951F93182F80E0B7DF112319F0682F55
:100B40006F7702C0682F606880E06EDD1F910895A6
:100B50008DE2809314028BE38093150287E18093EA
:100B600016028FE1809318028CE08093130281E1DA
:100B70008093170287E080931902A8DF81E0D9DF14
:100B8000089520982198289A299A08959BB19F70DA
:100B90009BB99BB1807F892B8BB95B9A85E38A9542
:100BA000F1F75B9808951F93182F5A9AEFDF812F62
:100BB0008295807FEBDF8AE78A95F1F71F91089590
:100BC0001F93182F5A98E2DF812F8295807FDEDFF6
:100BD00080E78A95F1F71F91089581E0F1DF80EABF
:100BE0009FE00197F1F708950F931F938AB18C6FDF
:100BF0008AB98BB183708BB980E395E70197F1F7E0
:100C000080E3C4DF00E117E2C8010197F1F75B9AC6
:100C100025E3822F8A95F1F75B9880ED97E0FC0140
:100C20003197F1F75B9A2A95F1F75B980197F1F705
:100C300080E2ACDFC8010197F1F788E2C1DF8CE008
:100C4000BFDF86E0BDDFC9DF1F910F91089582E00D
:100C5000B7DF80EA9FE00197F1F70895623061F015
:100C6000633018F4613071F405C0633039F06430DA
:100C700049F406C0805805C0805403C0805701C0A5
:100C800080539EDF0895CF93DF93EC0102C021963D
:100C90008ADF88818823D9F7DF91CF9108950F9358
:100CA0001F93CF93DF938B01880F880F880F806489
:100CB00087DFC0E0D0E0F801EC0FFD1F808173DF1B
:100CC0002196C830D105B9F7DF91CF911F910F91CF
:100CD0000895982F84EA8093BC008091BC0087FF20
:100CE000FCCF8091B900887F883039F08091B900BD
:100CF000887F803111F081E008959093BB0084E8F3
:100D00008093BC008091BC0087FFFCCF8091B9002C
:100D1000887F883139F08091B900887F803411F064
:100D200082E0089580E008956B3008F46BE03D9810
:100D30003C98882319F0459A449A02C045984498F3
:100D40006093B80081E08093B90008958E7FC1DF81
:100D500008958093BB0084E88093BC008091BC0020
:100D600087FFFCCF8091B90090E0887F883209F03E
:100D700091E0892F08958160ACDF089584EC809321
:100D8000BC008091BC0087FFFCCF8091BB00089520
:100D900084E88093BC008091BC0087FFFCCF8091E9
:100DA000BB00089584E98093BC008091BC0084FD61
:100DB000FCCF0895629FD001739FF001829FE00DE8
:100DC000F11D649FE00DF11D929FF00D839FF00DCA
:100DD000749FF00D659FF00D9927729FB00DE11D76
:100DE000F91F639FB00DE11DF91FBD01CF01112453
:100DF0000895991B79E004C0991F961708F0961B77
:100E0000881F7A95C9F780950895AA1BBB1B51E1ED
:100E100007C0AA1FBB1FA617B70710F0A61BB70B6A
:100E2000881F991F5A95A9F780959095BC01CD010F
:100E3000089597FB092E07260AD077FD04D0E5DF39
:100E400006D000201AF4709561957F4F0895F6F74B
:100E5000909581959F4F0895A1E21A2EAA1BBB1B66
:100E6000FD010DC0AA1FBB1FEE1FFF1FA217B30776
:100E7000E407F50720F0A21BB30BE40BF50B661F8C
:100E8000771F881F991F1A9469F760957095809550
:100E900090959B01AC01BD01CF010895AEE0B0E09B
:100EA000E3E5F7E0A5C20D891E898F89988D97FF2C
:100EB00002C080E090E801979E838D831A830983A6
:100EC00086E08C839E01255E3F4FCE010196698DA1
:100ED0007A8DA90111D04D815E8157FD0AC02F8105
:100EE0003885421753070CF49A01020F131FF801BB
:100EF00010822E96E4E098C2ABE0B0E0E1E8F7E0C3
:100F000069C23C012B015A01FC01178216828381C0
:100F100081FD03C06FEF7FEFB9C19AE0892E1E01FA
:100F20000894211C311CF3012381F20123FD8591DA
:100F300023FF81912F01882309F4A5C1853239F45B
:100F400023FD859123FF81912F01853221F490E0CB
:100F5000B301B6D1E8CF982FFF24EE249924FFE106
:100F6000FF15D0F09B3269F09C3228F4903259F092
:100F7000933291F40EC09D3249F0903369F441E010
:100F800024C052E0F52A84E0F82A28C098E0F92A23
:100F900025C0E0E1FE2A22C0F7FC29C0892F80533A
:100FA0008A3070F4F6FE05C0989C902C1124980E9F
:100FB00015C0E89CE02C1124E80EF0E2FF2A0EC0D8
:100FC0009E3229F4F6FC5FC140E4F42A07C09C3647
:100FD00019F450E8F52A02C0983649F4F20123FDCD
:100FE000959123FF91912F01992309F0B8CF892F73
:100FF0008554833018F08052833038F444E050E058
:10100000A40EB51E5FE359830FC0933631F09337BA
:1010100079F0933509F052C01FC0F50180818983B2
:1010200042E050E0A40EB51E610101E010E011C0E5
:10103000F501C080D180F6FC03C06FEF7FEF02C0E6
:10104000692D70E042E050E0A40EB51EC6012DD11E
:101050008C015FE7F52213C0F501C080D180F6FC5A
:1010600003C06FEF7FEF02C0692D70E042E050E0F7
:10107000A40EB51EC6010ED18C0150E8F52AF3FE70
:1010800006C018C080E290E0B3011AD1EA948E2D18
:1010900090E008171907B0F30DC0F601F7FC859131
:1010A000F7FE81916F0190E0B3010AD1E110EA945B
:1010B000015010400115110581F7E2C0943611F07E
:1010C000993661F5F7FE08C0F50120813181428132
:1010D000538184E090E00AC0F501808191819C01F8
:1010E000442737FD4095542F82E090E0A80EB91EAA
:1010F0009FE6F92257FF09C05095409530952195FC
:101100003F4F4F4F5F4FE0E8FE2ACA01B901A101EE
:101110002AE030E001D1D82ED2183FC0953729F40B
:101120001F2D1F7E2AE030E01DC01F2D197F9F3626
:1011300061F0903720F4983509F0A5C00FC09037C2
:1011400039F0983709F09FC004C028E030E00AC0A9
:10115000106114FD146020E130E004C014FD16603D
:1011600020E132E017FF08C0F501608171818281C2
:10117000938144E050E008C0F50180819181BC0179
:1011800080E090E042E050E0A40EB51EA101C4D082
:10119000D82ED2188FE7F82EF122F6FE0BC05EEFA4
:1011A000F522D91438F4F4FE07C0F2FC05C08FEE26
:1011B000F82202C01D2D01C0192DF4FE0DC0FE0144
:1011C000ED0DF11D8081803319F499EEF92208C0EC
:1011D0001F5FF2FE05C003C08F2D867809F01F5FE8
:1011E0000F2DF3FC13C0F0FE0EC01E1510F09D2C49
:1011F0000AC09D2C9E0C911A1E2D05C080E290E025
:10120000B3015ED01F5F1E15C8F304C01E1510F495
:10121000E11A01C0EE2404FF0EC080E390E0B301A8
:101220004FD002FF1BC001FD03C088E790E00EC055
:1012300088E590E00BC0802F867881F001FF02C026
:101240008BE201C080E2F7FC8DE290E0B30138D080
:1012500005C080E390E0B30133D09A94D914C8F369
:10126000DA94F101ED0DF11D808190E0B30128D0F9
:10127000DD20B1F705C080E290E0B30121D0EA940F
:10128000EE20C9F750CEF30166817781CB012B9612
:10129000E2E1BCC0FC010590615070400110D8F73C
:1012A000809590958E0F9F1F0895FC0161507040AE
:1012B00001900110D8F7809590958E0F9F1F08958B
:1012C0000F931F93CF93DF938C01EB018B8181FFF1
:1012D0001BC082FF0DC02E813F818C819D8128170C
:1012E000390764F4E881F9810193F983E88306C042
:1012F000E885F985802F0995892B31F48E819F81AE
:1013000001969F838E8302C00FEF1FEFC801DF910C
:10131000CF911F910F910895FA01AA27283051F11A
:10132000203181F1E8946F936E7F6E5F7F4F8F4F16
:101330009F4FAF4FB1E03ED0B4E03CD0670F781F75
:10134000891F9A1FA11D680F791F8A1F911DA11D5A
:101350006A0F711D811D911DA11D20D009F4689493
:101360003F912AE0269F11243019305D3193DEF63B
:10137000CF010895462F4770405D4193B3E00FD0F1
:10138000C9F7F6CF462F4F70405D4A3318F0495DDC
:1013900031FD4052419302D0A9F7EACFB4E0A695BF
:1013A0009795879577956795BA95C9F700976105E1
:1013B000710508959B01AC010A2E06945795479537
:1013C00037952795BA95C9F7620F731F841F951F2C
:1013D000A01D08952F923F924F925F926F927F923D
:1013E0008F929F92AF92BF92CF92DF92EF92FF9235
:1013F0000F931F93CF93DF93CDB7DEB7CA1BDB0BE1
:101400000FB6F894DEBF0FBECDBF09942A88398885
:1014100048885F846E847D848C849B84AA84B9848C
:10142000C884DF80EE80FD800C811B81AA81B98198
:10143000CE0FD11D0FB6F894DEBF0FBECDBFED01AC
:061440000895F894FFCFAF
:10144600436F756E743D25640025642E2564204324
:1014560000253032642E253032642E253032642049
:1014660020253032643A25303264005265636F724B
:1014760064696E6720446174612E2E0025303264E3
:101486003A253032643A2530326420203230253015
:10149600326400253032642E2530326420202564E3
:1014A6002E256420430056616C756573203D2564C6
:1014B6000040253032642E253032642E25303264C9
:1014C60020253032643A25303264004572726F72DC
:1014D6002120456D707479004D656D6F72792052CB
:1014E60065736574004572726F7221204E6F7420A9
:1014F600656D707479004F757470757420456E64EF
:10150600005245434F5244494E472053544F5000D2
:101516004D6F6E005475650057656400546875001C
:10152600467269005361740053756E00457272000D
:10153600D001D401D801DC01E001E401E801EC01AD
:0C1546001F1C1F1E1F1E1F1F1E1F1E1F2C
:00000001FF
