:1000000019C033C032C031C030C02FC02EC02DC087
:100010002CC02BC02AC029C028C027C026C025C09C
:1000200024C023C022C021C020C01FC01EC01DC0CC
:100030001CC01BC011241FBECFEFD4E0DEBFCDBF5C
:1000400012E0A0E0B1E0ECEBF5E102C005900D920A
:10005000A032B107D9F712E0A0E2B2E001C01D92D0
:10006000AE32B107E1F769D5A7CACACF282F2295CA
:100070002F709AE0299F900111248F70820F0895AC
:10008000482F6AE071D7282F30E084E0220F331F19
:100090008A95E1F7842F68D7892F822B089523B1A1
:1000A000A82FB0E030E020953095082E02C035959D
:1000B00027950A94E2F720FF1EC084EF91E028EC18
:1000C00030E0F9013197F1F70197D9F783B190E06A
:1000D000809590950A2E02C0959587950A94E2F72F
:1000E00080FF0EC0FD01E05EFD4F8081882341F45A
:1000F00081E080830895A05EBD4F1C9280E008954A
:1001000080E008951F93DF93CF93CDB7DEB72C9790
:100110000FB6F894DEBF0FBECDBFDE011196E3E14E
:10012000F2E08CE001900D928150E1F710922802EC
:10013000809129028F5F809329028C33F0F1109215
:10014000290280912A028F5F80932A028831A8F1C8
:1001500010922A0240912C024F5F40932C02109182
:100160002B02212F30E0C90183709070892B29F474
:10017000812F64E6F9D6992331F4C90160E971E071
:1001800013D7892B11F48DE18A8390912702FE0108
:10019000E90FF11D8181841730F481E080932C02F6
:1001A0009F5F90932702809127028C3030F081E08E
:1001B000809327021F5F10932B022C960FB6F894A2
:1001C000DEBF0FBECDBFCF91DF911F91089560E0DC
:1001D00020E030E040E050E080917A00806C809335
:1001E0007A0080917A0086FDFCCF80917800909112
:1001F0007900A0E0B0E0280F391F4A1F5B1F6F5F36
:10020000603851F795E056954795379527959A951B
:10021000D1F72454354040405040CA01B9012BE188
:1002200030E040E050E081D62AE030E040E050E0AD
:10023000CED6C901089583E38093C40088E08093FB
:10024000C10086E08093C2000895982F8091C0007D
:1002500085FFFCCF9093C6000895AC0120E007C055
:100260008091C00085FFFCCFE093C6002F5FFA01AC
:10027000E20FF11DE081EE2399F70895AF92BF924E
:10028000DF92EF92FF920F931F93DF93CF93CDB73F
:10029000DEB760970FB6F894DEBF0FBECDBFD82E85
:1002A0005B0156D58DB79EB708970FB6F8949EBFE1
:1002B0000FBE8DBFEDB7FEB731968E010F5F1F4F9A
:1002C000ADB7BEB712961C930E93119728E0E22E9D
:1002D000F12CF382E28280E091E095838483D682E0
:1002E000178297D68DB79EB708960FB6F8949EBF23
:1002F0000FBE8DBF80E061E06CD5C8017FD588E07E
:1003000061E067D5ADB7BEB71A970FB6F894BEBF18
:100310000FBEADBFEDB7FEB7319612961C930E938C
:100320001197F382E28289E091E095838483C5018D
:100330006AE070E025D677836683C5016AE070E0E5
:100340001FD69187808765D68DB79EB70A960FB660
:10035000F8949EBF0FBE8DBFC80150D580E062E00B
:1003600038D5ADB7BEB750970FB6F894BEBF0FBE25
:10037000ADBFEDB7FEB7319612961C930E93119751
:1003800080E190E09383828381E191E0958384838F
:1003900080912C02868317828091270280871186A4
:1003A00080912B028287138680912A02848715868A
:1003B00080912902868717862CD68DB79EB74096E6
:1003C0000FB6F8949EBF0FBE8DBFC80117D56096BB
:1003D0000FB6F894DEBF0FBECDBFCF91DF911F9156
:1003E0000F91FF90EF90DF90BF90AF900895BF9274
:1003F000CF92DF92EF92FF920F931F93DF93CF93F1
:10040000CDB7DEB728970FB6F894DEBF0FBECDBFCD
:10041000B82E6B019DD48BE291E0F0D48DB79EB7DE
:1004200008970FB6F8949EBF0FBE8DBFEDB7FEB70D
:1004300031968E010F5F1F4FADB7BEB712961C935A
:100440000E93119738E0E32EF12CF382E28280E0E4
:1004500091E095838483B6821782DBD58DB79EB7F2
:1004600008960FB6F8949EBF0FBE8DBF80E062E085
:10047000B0D4C801C3D4ADB7BEB71A970FB6F894BD
:10048000BEBF0FBEADBFEDB7FEB7319612961C933F
:100490000E931197F382E28289E091E09583848341
:1004A000C6016AE070E06CD577836683C6016AE0B6
:1004B00070E066D591878087ACD58DB79EB70A96D8
:1004C0000FB6F8949EBF0FBE8DBF88E062E081D466
:1004D000C80194D428960FB6F894DEBF0FBECDBFE6
:1004E000CF91DF911F910F91FF90EF90DF90CF9010
:1004F000BF900895CF92DF92EF92FF920F931F93D8
:10050000DF93CF93CDB7DEB760970FB6F894DEBF19
:100510000FBECDBF6C018DB79EB70E970FB6F89486
:100520009EBF0FBE8DBFEDB7FEB731968E010F5F38
:100530001F4FADB7BEB712961C930E93119740E1B3
:10054000E42EF12CF382E2828CE391E095838483A4
:1005500080912A02868317828091290280871186E2
:10056000809128028287138680912B0284871586CA
:1005700050D58DB79EB70E960FB6F8949EBF0FBE9E
:100580008DBFE6D3C8013AD4ADB7BEB71E970FB63C
:10059000F894BEBF0FBEADBFEDB7FEB73196129651
:1005A0001C930E931197F382E28283E591E0958389
:1005B000848380912C028683178280912702808712
:1005C0001186C6016AE070E0DBD473876287C601DA
:1005D0006AE070E0D5D4958784871BD58DB79EB728
:1005E0000E960FB6F8949EBF0FBE8DBF80E062E0FE
:1005F000F0D3C80103D460960FB6F894DEBF0FBEE7
:10060000CDBFCF91DF911F910F91FF90EF90DF90C1
:10061000CF900895FF920F931F93F82E092F162F56
:1006200080EA4FD4882339F4812F4ED4802F4CD4C4
:100630008F2D4AD472D480E29EE40197F1F71F9186
:100640000F91FF9008950F931F93082F162F80EAA4
:1006500038D4882329F4812F37D4802F35D45DD422
:1006600080E29EE40197F1F71F910F9108950F9397
:100670001F93182F062F80ED24D4882329F4812F6F
:1006800023D4802F21D449D41F910F9108951F9313
:10069000182F80EA16D4882319F4812F15D43DD45D
:1006A00081EA24D4882319F424D4182F2CD4312F90
:1006B00020E0280F311DC9011F9108951F93182FA5
:1006C00080EAFFD3882311F010E007C0812FFCD30C
:1006D00081EA0CD418D4182F20D4812F1F910895AB
:1006E000AF92BF92CF92DF92EF92FF920F931F9340
:1006F000DF93CF93CDB7DEB769970FB6F894DEBF1F
:100700000FBECDBF80E0DADF082F882321F486E614
:1007100091E0A3DD44C081E0D1DF80932B0282E031
:10072000CDDF8093270283E0C9DF80932C0284E031
:10073000C5DF80932A0285E0C1DF8093290211E0A2
:100740007E010894E11CF11C66E0A62EB12C53E753
:10075000C52E51E0D52E21C0812F880F8C5F97DFE9
:1007600000D000D000D0EDB7FEB73196ADB7BEB720
:100770001296FC92EE921197B382A282D582C48225
:1007800048D48DB79EB706960FB6F8949EBF0FBE9D
:100790008DBFC70162DDB6DC1F5F0117E8F6699601
:1007A0000FB6F894DEBF0FBECDBFCF91DF911F9182
:1007B0000F91FF90EF90DF90CF90BF90AF90089592
:1007C000BF92CF92DF92EF92FF920F931F93DF932E
:1007D000CF93CDB7DEB760970FB6F894DEBF0FBEEC
:1007E000CDBF80E06BDFB82E81E068DF80932B0205
:1007F00082E064DF8093270283E060DF80932C0235
:1008000084E05CDF80932A0285E058DF8093290230
:1008100086E03DDF6C0180E051DF882371F498D2DF
:1008200086E691E0EBD280E197E228EC30E0F90136
:100830003197F1F70197D9F7AAC08AD28DB79EB741
:1008400008970FB6F8949EBF0FBE8DBFEDB7FEB7E9
:1008500031968E010F5F1F4FADB7BEB712961C9336
:100860000E931197A0E1EA2EF12CF382E28289E740
:1008700091E095838483B6821782CBD38DB79EB7E0
:1008800008960FB6F8949EBF0FBE8DBF80E061E062
:10089000A0D2C801B3D280E062E09BD2ADB7BEB7B0
:1008A00050970FB6F894BEBF0FBEADBFEDB7FEB701
:1008B000319612961C930E931197F382E28284E88C
:1008C00091E09583848380912C02868317828091A6
:1008D00027028087118680912B0282871386809160
:1008E0002A0284871586809129028687178691D3EC
:1008F0008DB79EB740960FB6F8949EBF0FBE8DBFC2
:10090000C8017CD288EB9BE028EC30E0F9013197FC
:10091000F1F70197D9F701E078ECE72EF12C8CEB99
:1009200092E0F7013197F1F70197D9F7189913C0C1
:10093000199911C080E060E086DE0AD28EE991E06C
:100940005DD280E197E228EC30E0F9013197F1F7D0
:100950000197D9F71CC080E0A2DB882399F0B0167C
:1009600088F084EF91E0F7013197F1F70197D9F71B
:10097000802FB60183DC0F5FC5DB802F880F8C5F73
:1009800086DE6C0181E08BDB882309F4C8CF60969A
:100990000FB6F894DEBF0FBECDBFCF91DF911F9190
:1009A0000F91FF90EF90DF90CF90BF9008951F932D
:1009B00080ED87D2882311F081E056C080E084D298
:1009C00080ED94D296D2282F2F7722952F701AE09F
:1009D000219F900111248F70820F8093280289D269
:1009E000282F22952F70219F900111248F70820F44
:1009F000809329027ED2282F2F7322952F70219F5A
:100A0000900111248F70820F80932A0272D2282FB6
:100A100022952F70219F900111248F70820F809357
:100A20002D0267D2282F22952F70219F900111242B
:100A30008F70820F80932C025CD2282F22952F700A
:100A4000219F900111248F70820F809327025BD227
:100A5000282F22952F70219F900111248F70820FD3
:100A600080932B025AD280E01F9108950F931F9319
:100A7000CF93DF936DD180E021DE882369F08BEA8C
:100A800091E0BCD180E197E228EC30E0F9013197A8
:100A9000F1F70197D9F74CC09ADBEC0181E060E0F7
:100AA000D2DD80912B0261E0CEDD8091270262E0F1
:100AB000CADD80912C0263E0C6DD80912A0264E0E9
:100AC000C2DD8091290265E0BEDDCE0166E0A2DDD7
:100AD00081E0BE018CDC01E011E069DF8091280239
:100AE000882311F010E00FC0112361F40F5F802FF5
:100AF00060E0A9DD602F70E06E5F7F4F660F771FAB
:100B0000CE0188DD11E063DBEC01802FBE016FDCDC
:100B100018990CC019990AC08CEB92E028EC30E0CF
:100B2000F9013197F1F70197D9F702C00D37A9F60E
:100B3000DF91CF911F910F910895DF92EF92FF9275
:100B40000F931F93CF93DF93D7D009D181E06AE051
:100B5000A6D188EC80937C0086E080937A00809117
:100B60007A00806C80937A0028EE33E0C8ECD0E005
:100B700083E3D82E08E0E02E16E0F12E09C0CE0166
:100B80000197F1F72150304003C028EE33E0F7CF52
:100B900021153105A1F71BDB8C0109DFC801AADC97
:100BA0008CEB92E0FE013197F1F70197D9F7189994
:100BB00014C0199912C0D092C400E092C100F09202
:100BC000C2008EDDC5D08CEB91E018D180E197E2B8
:100BD000FE013197F1F70197D9F780E060DA8823B9
:100BE00061F0EEDDB5D089EC91E008D180E197E2CB
:100BF000FE013197F1F70197D9F781E050DA8823A8
:100C000009F4C3CF33DFA4D084ED91E0F7D080E1C5
:100C100097E2FE013197F1F70197D9F7B6CF1F930D
:100C2000182F80ED4ED1882311F010E007C0812FDE
:100C30004BD180ED5BD167D1182F6FD1812F1F91E0
:100C400008951F9380E0EBDF182F80ED3AD18823C1
:100C500011F081E027C080E037D117FF05C08091F7
:100C600028020EDA806804C08091280209DA8F77A2
:100C70002BD18091290204DA27D180912A0200DA4F
:100C800023D180912D0220D180912C02F9D91CD141
:100C900080912702F5D918D180912B02F1D914D176
:100CA0003CD180E01F9108951F93182F80E0B7DF9B
:100CB000112319F0682F6F7702C0682F606880E0F9
:100CC000D6DC1F9108958DE2809328028BE38093F8
:100CD000290287E180932A028FE180932C028CE025
:100CE0008093270281E180932B0287E080932D027D
:100CF000A8DF81E0D9DF089520982198289A299AC1
:100D000008959BB19F709BB99BB1807F892B8BB954
:100D10005B9A85E38A95F1F75B9808951F93182FE6
:100D20005A9AEFDF812F8295807FEBDF8AE78A95E1
:100D3000F1F71F9108951F93182F5A98E2DF812F22
:100D40008295807FDEDF80E78A95F1F71F91089515
:100D500081E0F1DF80EA9FE00197F1F708950F93BA
:100D60001F938AB18C6F8AB98BB183708BB980E382
:100D700095E70197F1F780E3C4DF00E117E2C801CE
:100D80000197F1F75B9A25E3822F8A95F1F75B983B
:100D900080ED97E0FC013197F1F75B9A2A95F1F726
:100DA0005B980197F1F780E2ACDFC8010197F1F79A
:100DB00088E2C1DF8CE0BFDF86E0BDDFC9DF1F91C5
:100DC0000F91089582E0B7DF80EA9FE00197F1F785
:100DD0000895623061F0633018F4613071F405C039
:100DE000633039F0643049F406C0805805C080543F
:100DF00003C0805701C080539EDF0895CF93DF93D7
:100E0000EC0102C021968ADF88818823D9F7DF911F
:100E1000CF9108950F931F93CF93DF938B01880F8A
:100E2000880F880F806487DFC0E0D0E0F801EC0F06
:100E3000FD1F808173DF2196C830D105B9F7DF919E
:100E4000CF911F910F910895982F84EA8093BC0051
:100E50008091BC0087FFFCCF8091B900887F8830EB
:100E600039F08091B900887F803111F081E00895D8
:100E70009093BB0084E88093BC008091BC0087FF06
:100E8000FCCF8091B900887F883139F08091B9001A
:100E9000887F803411F082E0089580E008956B30FF
:100EA00008F46BE03D983C98882319F0459A449AE1
:100EB00002C0459844986093B80081E08093B900DF
:100EC00008958E7FC1DF08958093BB0084E88093EE
:100ED000BC008091BC0087FFFCCF8091B90090E0FE
:100EE000887F883209F091E0892F08958160ACDF16
:100EF000089584EC8093BC008091BC0087FFFCCFF8
:100F00008091BB00089584E88093BC008091BC0070
:100F100087FFFCCF8091BB00089584E98093BC00DB
:100F20008091BC0084FDFCCF0895629FD001739F27
:100F3000F001829FE00DF11D649FE00DF11D929F75
:100F4000F00D839FF00D749FF00D659FF00D9927B4
:100F5000729FB00DE11DF91F639FB00DE11DF91FD8
:100F6000BD01CF0111240895991B79E004C0991F98
:100F7000961708F0961B881F7A95C9F780950895F3
:100F8000AA1BBB1B51E107C0AA1FBB1FA617B707AF
:100F900010F0A61BB70B881F991F5A95A9F78095CB
:100FA0009095BC01CD01089597FB092E07260AD024
:100FB00077FD04D0E5DF06D000201AF47095619526
:100FC0007F4F0895F6F7909581959F4F0895A1E280
:100FD0001A2EAA1BBB1BFD010DC0AA1FBB1FEE1FB3
:100FE000FF1FA217B307E407F50720F0A21BB30BFE
:100FF000E40BF50B661F771F881F991F1A9469F77A
:1010000060957095809590959B01AC01BD01CF01D5
:101010000895AEE0B0E0EEE0F8E0A5C20D891E89CB
:101020008F89988D97FF02C080E090E801979E839A
:101030008D831A83098386E08C839E01255E3F4F52
:10104000CE010196698D7A8DA90111D04D815E8105
:1010500057FD0AC02F813885421753070CF49A01B7
:10106000020F131FF80110822E96E4E098C2ABE045
:10107000B0E0ECE3F8E069C23C012B015A01FC014D
:1010800017821682838181FD03C06FEF7FEFB9C1A4
:101090009AE0892E1E010894211C311CF301238142
:1010A000F20123FD859123FF81912F01882309F40B
:1010B000A5C1853239F423FD859123FF81912F014C
:1010C000853221F490E0B301B6D1E8CF982FFF2408
:1010D000EE249924FFE1FF15D0F09B3269F09C3299
:1010E00028F4903259F0933291F40EC09D3249F0B9
:1010F000903369F441E024C052E0F52A84E0F82AF4
:1011000028C098E0F92A25C0E0E1FE2A22C0F7FCB9
:1011100029C0892F80538A3070F4F6FE05C0989C50
:10112000902C1124980E15C0E89CE02C1124E80E98
:10113000F0E2FF2A0EC09E3229F4F6FC5FC140E4C3
:10114000F42A07C09C3619F450E8F52A02C09836F4
:1011500049F4F20123FD959123FF91912F019923E9
:1011600009F0B8CF892F8554833018F0805283302E
:1011700038F444E050E0A40EB51E5FE359830FC07D
:10118000933631F0933779F0933509F052C01FC090
:10119000F5018081898342E050E0A40EB51E610113
:1011A00001E010E011C0F501C080D180F6FC03C061
:1011B0006FEF7FEF02C0692D70E042E050E0A40EB7
:1011C000B51EC6012DD18C015FE7F52213C0F501D4
:1011D000C080D180F6FC03C06FEF7FEF02C0692DA5
:1011E00070E042E050E0A40EB51EC6010ED18C01A5
:1011F00050E8F52AF3FE06C018C080E290E0B30183
:101200001AD1EA948E2D90E008171907B0F30DC09B
:10121000F601F7FC8591F7FE81916F0190E0B30133
:101220000AD1E110EA94015010400115110581F72F
:10123000E2C0943611F0993661F5F7FE08C0F50169
:10124000208131814281538184E090E00AC0F50120
:10125000808191819C01442737FD4095542F82E085
:1012600090E0A80EB91E9FE6F92257FF09C05095DD
:101270004095309521953F4F4F4F5F4FE0E8FE2A54
:10128000CA01B901A1012AE030E001D1D82ED2185B
:101290003FC0953729F41F2D1F7E2AE030E01DC086
:1012A0001F2D197F9F3661F0903720F4983509F093
:1012B000A5C00FC0903739F0983709F09FC004C01F
:1012C00028E030E00AC0106114FD146020E130E035
:1012D00004C014FD166020E132E017FF08C0F501DC
:1012E000608171818281938144E050E008C0F50102
:1012F00080819181BC0180E090E042E050E0A40E4A
:10130000B51EA101C4D0D82ED2188FE7F82EF12235
:10131000F6FE0BC05EEFF522D91438F4F4FE07C0D8
:10132000F2FC05C08FEEF82202C01D2D01C0192D60
:10133000F4FE0DC0FE01ED0DF11D8081803319F426
:1013400099EEF92208C01F5FF2FE05C003C08F2D81
:10135000867809F01F5F0F2DF3FC13C0F0FE0EC05E
:101360001E1510F09D2C0AC09D2C9E0C911A1E2D4E
:1013700005C080E290E0B3015ED01F5F1E15C8F388
:1013800004C01E1510F4E11A01C0EE2404FF0EC0C3
:1013900080E390E0B3014FD002FF1BC001FD03C00A
:1013A00088E790E00EC088E590E00BC0802F86783B
:1013B00081F001FF02C08BE201C080E2F7FC8DE208
:1013C00090E0B30138D005C080E390E0B30133D0A2
:1013D0009A94D914C8F3DA94F101ED0DF11D8081CE
:1013E00090E0B30128D0DD20B1F705C080E290E0A5
:1013F000B30121D0EA94EE20C9F750CEF301668103
:101400007781CB012B96E2E1BCC0FC0105906150D5
:1014100070400110D8F7809590958E0F9F1F08950A
:10142000FC016150704001900110D8F780959095B3
:101430008E0F9F1F08950F931F93CF93DF938C01FF
:10144000EB018B8181FF1BC082FF0DC02E813F818C
:101450008C819D812817390764F4E881F981019313
:10146000F983E88306C0E885F985802F0995892BE3
:1014700031F48E819F8101969F838E8302C00FEF8E
:101480001FEFC801DF91CF911F910F910895FA01CD
:10149000AA27283051F1203181F1E8946F936E7FB3
:1014A0006E5F7F4F8F4F9F4FAF4FB1E03ED0B4E0A4
:1014B0003CD0670F781F891F9A1FA11D680F791FE5
:1014C0008A1F911DA11D6A0F711D811D911DA11DF6
:1014D00020D009F468943F912AE0269F1124301906
:1014E000305D3193DEF6CF010895462F4770405DA1
:1014F0004193B3E00FD0C9F7F6CF462F4F70405D50
:101500004A3318F0495D31FD4052419302D0A9F7AA
:10151000EACFB4E0A6959795879577956795BA95A4
:10152000C9F700976105710508959B01AC010A2E6A
:1015300006945795479537952795BA95C9F7620F41
:10154000731F841F951FA01D08952F923F924F92E5
:101550005F926F927F928F929F92AF92BF92CF9243
:10156000DF92EF92FF920F931F93CF93DF93CDB74C
:10157000DEB7CA1BDB0B0FB6F894DEBF0FBECDBFC4
:1015800009942A88398848885F846E847D848C8495
:101590009B84AA84B984C884DF80EE80FD800C819E
:1015A0001B81AA81B981CE0FD11D0FB6F894DEBF81
:0C15B0000FBECDBFED010895F894FFCFF1
:1015BC00436F756E743D25640025642E25642043AD
:1015CC0000253032642E253032642E2530326420D2
:1015DC0020253032643A25303264005265636F72D4
:1015EC0064696E6720446174612E2E00253032646C
:1015FC003A253032643A253032642020323025309E
:10160C00326400253032642E25303264202025646B
:10161C002E25642043004572726F722120456D7037
:10162C0074790032363231390056616C756573202D
:10163C003D25640040253032642E253032642E2541
:10164C0030326420253032643A25303264004D65E6
:10165C006D6F7279205265736574004572726F728A
:10166C0021204E6F7420656D707479005553415272
:10167C0054204F5554505554004F75747075742048
:10168C00456E64005245434F5244494E47205354D3
:10169C004F50004D6F6E00547565005765640054D3
:1016AC00687500467269005361740053756E00458D
:1016BC00727200E301E701EB01EF01F301F701FBAB
:1016CC0001FF011F1C1F1E1F1E1F1F1E1F1E1F00A0
:00000001FF
