:100000001CC023C022C021C020C01FC01EC01DC0F4
:100010001CC01BC01AC019C018C017C016C015C01C
:1000200014C013C012C011C010C00FC00EC00DC04C
:100030000CC00BC032363231390011241FBECFEF55
:10004000D4E0DEBFCDBF02D01CC0DACF16D028EC82
:1000500030E0189909C084EF91E0F9013197F1F788
:100060000197D9F7299AF5CF84EF91E0F9013197FB
:10007000F1F70197D9F72998ECCF2098289A219A7F
:060080000895F894FFCF83
:00000001FF
