:1000000030C042C041C040C03FC03EC03DC03CC007
:100010003BC03AC039C038C037C036C035C034C024
:1000200033C032C031C030C02FC02EC02DC02CC054
:100030002BC02AC053C06BC058C05CC060C062C037
:1000400063C064C067C06CC08AC0A2C08FC093C0C8
:1000500097C099C09AC09BC09EC0A3C032363231AF
:10006000390011241FBECFEFD4E0DEBFCDBF11E0B9
:10007000A0E0B1E0EEE8F2E002C005900D92A230FF
:10008000B107D9F7A3D001C1BBCF3A983B98429AA8
:10009000439A209A219A229A239A249A259A389A46
:1000A000399A529A539A549A559A569A579A089549
:1000B000982F809101019817D9F1909301015D9AD1
:1000C0005E9A5F9A2C9A2D9A409A419AE92FF0E015
:1000D000EA30F10560F5E65EFF4F09945D985E98A1
:1000E0005F982C982D98409808955F985E982C986A
:1000F0002D981BC05F985E985D982C9816C05E98EE
:100100005D9812C05F980EC05F9806C05F985E98B9
:100110005D9808955F985E985D982C982D9804C01E
:100120005F985E985D982C98409841980895419802
:100130000895982F809100019817D9F190930001AC
:10014000289A299A2A9A2B9A5A9A5B9A5C9AE92FAA
:10015000F0E0EA30F10560F5EC5DFF4F09945C9842
:100160005B985A98289829982A9808955C985B98E3
:10017000289829981BC05C985B985A98289816C0B4
:100180005B985A9812C05C980EC05C9806C05C9848
:100190005B985A9808955C985B985A982898299883
:1001A00004C05C985B985A9828982A982B980895D0
:1001B0002B9808951F93182F6AE05BD0892FB9DF21
:1001C000812F6AE056D074DF1F910895FF920F933C
:1001D0001F93CF93DF9359DF80E0ECDF10E000E066
:1001E000FF24C8ECD0E004C0FF2402C0FF24F39435
:1001F00032990CC033990AC084EC99E0FE01319722
:10020000F1F70197D9F780E0D5DF10E0329917C0F8
:100210001336A8F4002399F4339B12C01F5F812F7B
:10022000C9DF07C088EE93E0FE013197F1F701972F
:10023000D9F7329902C03399F5CF01E001C000E04F
:100240003399D2CF112381F2329BCECF1150812F1F
:10025000B1DF07C088EE93E0FE013197F1F7019717
:10026000D9F73399C3CFFF2009F0C0CF3299F2CF2D
:10027000BDCF991B79E004C0991F961708F0961B13
:0E028000881F7A95C9F780950895F894FFCFEE
:02028E006363A8
:00000001FF
