:100000001CC023C022C021C020C01FC01EC01DC0F4
:100010001CC01BC01AC019C018C017C016C015C01C
:1000200014C013C012C011C010C00FC00EC00DC04C
:100030000CC00BC032363231390011241FBECFEF55
:10004000D4E0DEBFCDBF1AD033C0DACF2098289AD3
:10005000219A229A239A3B984398ECE7F0E0108289
:10006000808180648083808183608083EAE7F0E020
:1000700086E080838081806E80830895E7DF8091B1
:100080007800909179008A5A924018F0299A2A981B
:1000900009C080917800909179008555914020F0B9
:1000A0002A9A29982B98EBCF2B9A2A982998E7CF50
:0400B000F894FFCFF2
:00000001FF
