:100000001CC023C022C021C020C01FC01EC01DC0F4
:100010001CC01BC01AC019C018C017C016C015C01C
:1000200014C013C012C011C010C00FC00EC00DC04C
:100030000CC00BC032363231390011241FBECFEF55
:10004000D4E0DEBFCDBF02D03BC0DACF1FD04A998B
:1000500004C04B9902C081E001C080E01FD04A9BE0
:1000600002C04B9902C081E001C080E01DD099B16F
:1000700089B196959695869586958695892780FF70
:1000800002C081E001C080E015D0E1CF52985398C2
:100090005A9A5B9A209A219A229A0895882311F0FD
:1000A000299A089529980895882311F02A9A089585
:1000B0002A980895882311F02B9A08952B98089573
:0400C000F894FFCFE2
:00000001FF
