:1000000019C033C032C031C030C02FC02EC02DC087
:100010002CC02BC02AC029C028C027C026C025C09C
:1000200024C023C022C021C020C01FC01EC01DC0CC
:100030001CC01BC011241FBECFEFD4E0DEBFCDBF5C
:1000400012E0A0E0B1E0ECE1F6E102C005900D9213
:10005000AA33B107D9F712E0AAE3B2E001C01D92BA
:10006000A834B107E1F70FD6D7CACACF23B1A82F5A
:10007000B0E030E020953095082E02C035952795E8
:100080000A94E2F720FF1EC084EF91E028EC30E0F4
:10009000F9013197F1F70197D9F783B190E0809595
:1000A00090950A2E02C0959587950A94E2F780FFF5
:1000B0000EC0FD01E65CFD4F8081882341F481E0A4
:1000C00080830895A65CBD4F1C9280E0089580E077
:1000D0000895282F22952F709AE0299F90011124CE
:1000E0008F70820F0895482F6AE06ED7282F30E076
:1000F00084E0220F331F8A95E1F7842F65D7892F7B
:10010000822B08951F93DF93CF93CDB7DEB72C9743
:100110000FB6F894DEBF0FBECDBFDE011196EEE242
:10012000F2E08CE001900D928150E1F710924202D2
:10013000809143028F5F809343028C33E8F11092E9
:100140004302809144028F5F809344028831A0F182
:1001500010924402409146024F5F40934602109134
:100160004502212F30E0C90160E971E04DD7892BAC
:1001700049F023703070232B39F4812F64E624D7A3
:10018000992311F08DE18A8390914102FE01E90FDC
:10019000F11D8081841730F481E0809346029F5FD7
:1001A00090934102809141028C3030F081E0809345
:1001B00041021F5F109345022C960FB6F894DEBFE4
:1001C0000FBECDBFCF91DF911F91089560E020E079
:1001D00030E040E050E080917A00806C80937A00BB
:1001E00080917A0086FDFCCF809178009091790013
:1001F000A0E0B0E0280F391F4A1F5B1F6F5F603817
:1002000051F795E056954795379527959A95D1F7EB
:100210002253354040405040CA01B9012BE130E043
:1002200040E050E0B2D62AE030E040E050E0FFD6B7
:10023000C9010895E1ECF0E080818860808383E368
:100240008093C400E2ECF0E080818E6080830895AA
:10025000982F8091C00085FFFCCF9093C600089531
:10026000AC0120E007C08091C00085FFFCCFE09387
:10027000C6002F5FFA01E20FF11DE081EE2399F72E
:100280000895AF92BF92DF92EF92FF920F931F9368
:10029000DF93CF93CDB7DEB760970FB6F894DEBF8C
:1002A0000FBECDBFD82E5B0183D58DB79EB7089703
:1002B0000FB6F8949EBF0FBE8DBFEDB7FEB7319657
:1002C0008E010F5F1F4FADB7BEB712961C930E93F2
:1002D000119728E0E22EF12CF382E28280E091E097
:1002E00095838483D6821782C4D68DB79EB708962D
:1002F0000FB6F8949EBF0FBE8DBF80E061E099D528
:10030000C801ACD588E061E094D5ADB7BEB71A9707
:100310000FB6F894BEBF0FBEADBFEDB7FEB73196B6
:1003200012961C930E931197F382E28285E091E07E
:1003300095838483C5016AE070E052D67783668333
:10034000C5016AE070E04CD69187808792D68DB760
:100350009EB70A960FB6F8949EBF0FBE8DBFC80118
:100360007DD580E062E065D5ADB7BEB750970FB6DA
:10037000F894BEBF0FBEADBFEDB7FEB73196129673
:100380001C930E93119780E190E0938382838DE01C
:1003900091E09583848380914602868317828091C1
:1003A0004102808711868091450282871386809161
:1003B000440284871586809143028687178659D622
:1003C0008DB79EB740960FB6F8949EBF0FBE8DBFF7
:1003D000C80144D560960FB6F894DEBF0FBECDBFFE
:1003E000CF91DF911F910F91FF90EF90DF90BF9021
:1003F000AF900895BF92CF92DF92EF92FF920F934A
:100400001F93DF93CF93CDB7DEB728970FB6F8943D
:10041000DEBF0FBECDBFB82E6B01CAD487E291E01C
:100420001DD58DB79EB708970FB6F8949EBF0FBE27
:100430008DBFEDB7FEB731968E010F5F1F4FADB781
:10044000BEB712961C930E93119738E0E32EF12C51
:10045000F382E28280E091E095838483B682178202
:1004600008D68DB79EB708960FB6F8949EBF0FBEFC
:100470008DBF80E062E0DDD4C801F0D4ADB7BEB777
:100480001A970FB6F894BEBF0FBEADBFEDB7FEB75B
:10049000319612961C930E931197F382E28285E0B7
:1004A00091E095838483C6016AE070E099D57783F3
:1004B0006683C6016AE070E093D591878087D9D5BD
:1004C0008DB79EB70A960FB6F8949EBF0FBE8DBF2C
:1004D00088E062E0AED4C801C1D428960FB6F89483
:1004E000DEBF0FBECDBFCF91DF911F910F91FF9067
:1004F000EF90DF90CF90BF900895CF92DF92EF9270
:10050000FF920F931F93DF93CF93CDB7DEB7609722
:100510000FB6F894DEBF0FBECDBF6C018DB79EB78E
:100520000E970FB6F8949EBF0FBE8DBFEDB7FEB706
:1005300031968E010F5F1F4FADB7BEB712961C9359
:100540000E93119740E1E42EF12CF382E28286E3D0
:1005500091E0958384838091440286831782809101
:1005600043028087118680914202828713868091A0
:100570004502848715867DD58DB79EB70E960FB63A
:10058000F8949EBF0FBE8DBF13D4C80167D4ADB71A
:10059000BEB71E970FB6F894BEBF0FBEADBFEDB786
:1005A000FEB7319612961C930E931197F382E28256
:1005B0008DE491E09583848380914602868317823F
:1005C0008091410280871186C6016AE070E008D5FB
:1005D00073876287C6016AE070E002D595878487D9
:1005E00048D58DB79EB70E960FB6F8949EBF0FBE36
:1005F0008DBF80E062E01DD4C80130D460960FB694
:10060000F894DEBF0FBECDBFCF91DF911F910F9148
:10061000FF90EF90DF90CF900895FF920F931F937C
:10062000F82E092F162F80EA7CD4882339F4812FE5
:100630007BD4802F79D48F2D77D49FD480E29EE411
:100640000197F1F71F910F91FF9008950F931F935A
:10065000082F162F80EA65D4882329F4812F64D4CB
:10066000802F62D48AD480E29EE40197F1F71F9133
:100670000F9108950F931F93182F062F80ED51D4DB
:10068000882329F4812F50D4802F4ED476D41F9103
:100690000F9108951F93182F80EA43D4882319F4EB
:1006A000812F42D46AD481EA51D4882319F451D4D9
:1006B000182F59D4312F20E0280F311DC9011F9167
:1006C00008951F93182F80EA2CD4882319F4812FC2
:1006D0002BD453D481EA3AD4882309F444D41F910B
:1006E0000895AF92BF92CF92DF92EF92FF920F9355
:1006F0001F93DF93CF93CDB7DEB769970FB6F8940A
:10070000DEBF0FBECDBF8091C10088608093C10065
:1007100083E38093C4008091C2008E608093C20006
:1007200080E0CFDF882321F480E691E099DD6EC080
:1007300080E0C7DF082F81E0C4DF8093450282E0BC
:10074000C0DF8093410283E0BCDF8093460284E0F7
:10075000B8DF8093440285E0B4DF8093430211E068
:100760007E010894E11CF11C69E1A62EB12C5DE626
:10077000C52E51E0D52E47C0812F880F8C5F8ADFB0
:100780009C018DB79EB744970FB6F8949EBF0FBEDD
:100790008DBFEDB7FEB73196ADB7BEB71296FC92DE
:1007A000EE921197B382A282D582C48280914502D3
:1007B000868317828091410280871186809146024C
:1007C0008287138680914402848715868091430234
:1007D00086871786C9016AE070E002D4718B608B4E
:1007E000C9016AE070E0FCD3938B828B42D48DB751
:1007F0009EB744960FB6F8949EBF0FBE8DBFC7013B
:100800002FDD80DC1F5F011708F0B6CF69960FB6A9
:10081000F894DEBF0FBECDBFCF91DF911F910F9136
:10082000FF90EF90DF90CF90BF90AF900895BF9270
:10083000CF92DF92EF92FF920F931F93DF93CF93AC
:10084000CDB7DEB760970FB6F894DEBF0FBECDBF51
:1008500080E037DF882371F4ABD280E691E0FED2EE
:1008600080E197E228EC30E0F9013197F1F7019748
:10087000D9F7BDC080E025DFB82E81E022DF80936C
:10088000450282E01EDF8093410283E01ADF8093FD
:10089000460284E016DF8093440285E012DF8093F5
:1008A000430286E0F7DE6C0183D28DB79EB70897CE
:1008B0000FB6F8949EBF0FBE8DBFEDB7FEB7319651
:1008C0008E010F5F1F4FADB7BEB712961C930E93EC
:1008D0001197A0E1EA2EF12CF382E28282E991E005
:1008E00095838483B6821782C4D38DB79EB708964A
:1008F0000FB6F8949EBF0FBE8DBF80E061E099D225
:10090000C801ACD280E062E094D2ADB7BEB75097D8
:100910000FB6F894BEBF0FBEADBFEDB7FEB73196B0
:1009200012961C930E931197F382E2828DE991E067
:100930009583848380914602868317828091410249
:1009400080871186809145028287138680914402B8
:100950008487158680914302868717868AD38DB750
:100960009EB740960FB6F8949EBF0FBE8DBFC801CC
:1009700075D280E197E228EC30E0F9013197F1F788
:100980000197D9F701E070E5E72E73ECF72E18997F
:100990001AC0199918C0C7010197F1F7189913C027
:1009A000199911C080E060E051DE02D287EB91E03E
:1009B00055D280E197E228EC30E0F9013197F1F768
:1009C0000197D9F714C081E051DB882381F44EDB15
:1009D0008823E9F2B016D8F2802FB60152DC0F5FFF
:1009E00091DB802F880F8C5F55DE6C01D0CF609635
:1009F0000FB6F894DEBF0FBECDBFCF91DF911F9130
:100A00000F91FF90EF90DF90CF90BF9008951F93CC
:100A100080ED87D2882311F081E056C080E084D237
:100A200080ED94D296D2282F2F7722952F701AE03E
:100A3000219F900111248F70820F8093420289D2EE
:100A4000282F22952F70219F900111248F70820FE3
:100A5000809343027ED2282F2F7322952F70219FDF
:100A6000900111248F70820F8093440272D2282F3C
:100A700022952F70219F900111248F70820F8093F7
:100A8000470267D2282F22952F70219F90011124B1
:100A90008F70820F809346025CD2282F22952F7090
:100AA000219F900111248F70820F809341025BD2AD
:100AB000282F22952F70219F900111248F70820F73
:100AC000809345025AD280E01F910895EF92FF92E1
:100AD0000F931F93DF93CF9300D0CDB7DEB768D1CC
:100AE00080E0EFDD882369F084EC91E0B7D180E10C
:100AF00097E228EC30E0F9013197F1F70197D9F747
:100B00004CC064DB7C0181E060E0A0DD80914502A7
:100B100061E09CDD8091410262E098DD80914602B7
:100B200063E094DD8091440264E090DD80914302B3
:100B300065E08CDDC70166E070DD81E0B7015ADC5D
:100B400011E001E064DF80914202882311F000E0AF
:100B500017C00023A1F41F5F39DB9A838983812F9B
:100B600060E074DD612F70E06E5F7F4F660F771F6E
:100B700089819A8152DD812F69817A813BDC01E094
:100B8000189B02C081E005C083B190E096958795DF
:100B900081701D3711F08823A9F60F900F90CF9127
:100BA000DF911F910F91FF90EF9008951F93182FE1
:100BB00080EDB7D1882311F010E007C0812FB4D1A8
:100BC00080EDC4D1D0D1182FD8D1812F1F91089595
:100BD0001F9380E0EBDF182F80EDA3D1882311F065
:100BE00081E027C080E0A0D117FF05C080914202BC
:100BF0007ADA806804C08091420275DA8F7794D1E6
:100C00008091430270DA90D1809144026CDA8CD1E9
:100C10008091470289D18091460265DA85D1809121
:100C2000410261DA81D1809145025DDA7DD1A5D1A1
:100C300080E01F9108951F93182F80E0B7DF1123E4
:100C400019F0682F6F7702C0682F606880E012DDAE
:100C50001F9108958EE1809342028BE380934302BB
:100C600087E1809344028CE18093460282E0809386
:100C7000410284E18093450287E080934702A8DF28
:100C800081E0D9DF0895EF92FF920F931F93CF93E6
:100C9000DF9362D094D081E06AE031D188EC809318
:100CA0007C0086E080937A0080917A00806C80934B
:100CB0007A00D0DF28EE33E0C8ECD0E080E5E82E03
:100CC00083ECF82E09C0CE010197F1F72150304096
:100CD00003C028EE33E0F7CF21153105A1F776DA0E
:100CE0008C0195DEC80109DC189915C0199913C04B
:100CF000C7010197F1F718990EC019990CC0F1DCE2
:100D000057D085ED91E0AAD080E197E2FE013197BE
:100D1000F1F70197D9F780E0A9D9882361F087DD41
:100D200047D085EE91E09AD080E197E2FE013197BD
:100D3000F1F70197D9F781E099D9882351F2C6DEFE
:100D400037D080EF91E08AD080E197E2FE013197C1
:100D5000F1F70197D9F7BDCF20982198289A299AC1
:100D600008959BB19F709BB99BB1807F892B8BB9F4
:100D70005B9A85E38A95F1F75B9808951F93182F86
:100D80005A9AEFDF812F8295807FEBDF8AE78A9581
:100D9000F1F71F9108951F93182F5A98E2DF812FC2
:100DA0008295807FDEDF80E78A95F1F71F910895B5
:100DB00081E0F1DF80EA9FE00197F1F708950F935A
:100DC0001F938AB18C6F8AB98BB183708BB980E322
:100DD00095E70197F1F780E3C4DF00E117E2C8016E
:100DE0000197F1F75B9A25E3822F8A95F1F75B98DB
:100DF00080ED97E0FC013197F1F75B9A2A95F1F7C6
:100E00005B980197F1F780E2ACDFC8010197F1F739
:100E100088E2C1DF8CE0BFDF86E0BDDFC9DF1F9164
:100E20000F91089582E0B7DF80EA9FE00197F1F724
:100E30000895623061F0633018F4613071F405C0D8
:100E4000633039F0643049F406C0805805C08054DE
:100E500003C0805701C080539EDF0895CF93DF9376
:100E6000EC0102C021968ADF88818823D9F7DF91BF
:100E7000CF9108950F931F93CF93DF938B01880F2A
:100E8000880F880F806487DFC0E0D0E0F801EC0FA6
:100E9000FD1F808173DF2196C830D105B9F7DF913E
:100EA000CF911F910F910895982F84EA8093BC00F1
:100EB0008091BC0087FFFCCF8091B900887F88308B
:100EC00039F08091B900887F803111F081E0089578
:100ED0009093BB0084E88093BC008091BC0087FFA6
:100EE000FCCF8091B900887F883139F08091B900BA
:100EF000887F803411F082E0089580E008956B309F
:100F000008F46BE03D983C98882319F0459A449A80
:100F100002C0459844986093B80081E08093B9007E
:100F200008958E7FC1DF08958093BB0084E880938D
:100F3000BC008091BC0087FFFCCF8091B90090E09D
:100F4000887F883209F091E0892F08958160ACDFB5
:100F5000089584EC8093BC008091BC0087FFFCCF97
:100F60008091BB00089584E88093BC008091BC0010
:100F700087FFFCCF8091BB00089584E98093BC007B
:100F80008091BC0084FDFCCF0895629FD001739FC7
:100F9000F001829FE00DF11D649FE00DF11D929F15
:100FA000F00D839FF00D749FF00D659FF00D992754
:100FB000729FB00DE11DF91F639FB00DE11DF91F78
:100FC000BD01CF0111240895991B79E004C0991F38
:100FD000961708F0961B881F7A95C9F78095089593
:100FE000AA1BBB1B51E107C0AA1FBB1FA617B7074F
:100FF00010F0A61BB70B881F991F5A95A9F780956B
:101000009095BC01CD01089597FB092E07260AD0C3
:1010100077FD04D0E5DF06D000201AF470956195C5
:101020007F4F0895F6F7909581959F4F0895A1E21F
:101030001A2EAA1BBB1BFD010DC0AA1FBB1FEE1F52
:10104000FF1FA217B307E407F50720F0A21BB30B9D
:10105000E40BF50B661F771F881F991F1A9469F719
:1010600060957095809590959B01AC01BD01CF0175
:101070000895AEE0B0E0EEE3F8E0A5C20D891E8968
:101080008F89988D97FF02C080E090E801979E833A
:101090008D831A83098386E08C839E01255E3F4FF2
:1010A000CE010196698D7A8DA90111D04D815E81A5
:1010B00057FD0AC02F813885421753070CF49A0157
:1010C000020F131FF80110822E96E4E098C2ABE0E5
:1010D000B0E0ECE6F8E069C23C012B015A01FC01EA
:1010E00017821682838181FD03C06FEF7FEFB9C144
:1010F0009AE0892E1E010894211C311CF3012381E2
:10110000F20123FD859123FF81912F01882309F4AA
:10111000A5C1853239F423FD859123FF81912F01EB
:10112000853221F490E0B301B6D1E8CF982FFF24A7
:10113000EE249924FFE1FF15D0F09B3269F09C3238
:1011400028F4903259F0933291F40EC09D3249F058
:10115000903369F441E024C052E0F52A84E0F82A93
:1011600028C098E0F92A25C0E0E1FE2A22C0F7FC59
:1011700029C0892F80538A3070F4F6FE05C0989CF0
:10118000902C1124980E15C0E89CE02C1124E80E38
:10119000F0E2FF2A0EC09E3229F4F6FC5FC140E463
:1011A000F42A07C09C3619F450E8F52A02C0983694
:1011B00049F4F20123FD959123FF91912F01992389
:1011C00009F0B8CF892F8554833018F080528330CE
:1011D00038F444E050E0A40EB51E5FE359830FC01D
:1011E000933631F0933779F0933509F052C01FC030
:1011F000F5018081898342E050E0A40EB51E6101B3
:1012000001E010E011C0F501C080D180F6FC03C000
:101210006FEF7FEF02C0692D70E042E050E0A40E56
:10122000B51EC6012DD18C015FE7F52213C0F50173
:10123000C080D180F6FC03C06FEF7FEF02C0692D44
:1012400070E042E050E0A40EB51EC6010ED18C0144
:1012500050E8F52AF3FE06C018C080E290E0B30122
:101260001AD1EA948E2D90E008171907B0F30DC03B
:10127000F601F7FC8591F7FE81916F0190E0B301D3
:101280000AD1E110EA94015010400115110581F7CF
:10129000E2C0943611F0993661F5F7FE08C0F50109
:1012A000208131814281538184E090E00AC0F501C0
:1012B000808191819C01442737FD4095542F82E025
:1012C00090E0A80EB91E9FE6F92257FF09C050957D
:1012D0004095309521953F4F4F4F5F4FE0E8FE2AF4
:1012E000CA01B901A1012AE030E001D1D82ED218FB
:1012F0003FC0953729F41F2D1F7E2AE030E01DC026
:101300001F2D197F9F3661F0903720F4983509F032
:10131000A5C00FC0903739F0983709F09FC004C0BE
:1013200028E030E00AC0106114FD146020E130E0D4
:1013300004C014FD166020E132E017FF08C0F5017B
:10134000608171818281938144E050E008C0F501A1
:1013500080819181BC0180E090E042E050E0A40EE9
:10136000B51EA101C4D0D82ED2188FE7F82EF122D5
:10137000F6FE0BC05EEFF522D91438F4F4FE07C078
:10138000F2FC05C08FEEF82202C01D2D01C0192D00
:10139000F4FE0DC0FE01ED0DF11D8081803319F4C6
:1013A00099EEF92208C01F5FF2FE05C003C08F2D21
:1013B000867809F01F5F0F2DF3FC13C0F0FE0EC0FE
:1013C0001E1510F09D2C0AC09D2C9E0C911A1E2DEE
:1013D00005C080E290E0B3015ED01F5F1E15C8F328
:1013E00004C01E1510F4E11A01C0EE2404FF0EC063
:1013F00080E390E0B3014FD002FF1BC001FD03C0AA
:1014000088E790E00EC088E590E00BC0802F8678DA
:1014100081F001FF02C08BE201C080E2F7FC8DE2A7
:1014200090E0B30138D005C080E390E0B30133D041
:101430009A94D914C8F3DA94F101ED0DF11D80816D
:1014400090E0B30128D0DD20B1F705C080E290E044
:10145000B30121D0EA94EE20C9F750CEF3016681A2
:101460007781CB012B96E2E1BCC0FC010590615075
:1014700070400110D8F7809590958E0F9F1F0895AA
:10148000FC016150704001900110D8F78095909553
:101490008E0F9F1F08950F931F93CF93DF938C019F
:1014A000EB018B8181FF1BC082FF0DC02E813F812C
:1014B0008C819D812817390764F4E881F9810193B3
:1014C000F983E88306C0E885F985802F0995892B83
:1014D00031F48E819F8101969F838E8302C00FEF2E
:1014E0001FEFC801DF91CF911F910F910895FA016D
:1014F000AA27283051F1203181F1E8946F936E7F53
:101500006E5F7F4F8F4F9F4FAF4FB1E03ED0B4E043
:101510003CD0670F781F891F9A1FA11D680F791F84
:101520008A1F911DA11D6A0F711D811D911DA11D95
:1015300020D009F468943F912AE0269F11243019A5
:10154000305D3193DEF6CF010895462F4770405D40
:101550004193B3E00FD0C9F7F6CF462F4F70405DEF
:101560004A3318F0495D31FD4052419302D0A9F74A
:10157000EACFB4E0A6959795879577956795BA9544
:10158000C9F700976105710508959B01AC010A2E0A
:1015900006945795479537952795BA95C9F7620FE1
:1015A000731F841F951FA01D08952F923F924F9285
:1015B0005F926F927F928F929F92AF92BF92CF92E3
:1015C000DF92EF92FF920F931F93CF93DF93CDB7EC
:1015D000DEB7CA1BDB0B0FB6F894DEBF0FBECDBF64
:1015E00009942A88398848885F846E847D848C8435
:1015F0009B84AA84B984C884DF80EE80FD800C813E
:101600001B81AA81B981CE0FD11D0FB6F894DEBF20
:0C1610000FBECDBFED010895F894FFCF90
:10161C00693D25640025642E256420430025303265
:10162C00642E253032642E25303264202025303251
:10163C00643A25303264005245434F5244494E4778
:10164C00204441544100253032643A253032643A0A
:10165C00253032642020323025303264002530327F
:10166C00642E25303264202025642E25642043000E
:10167C004572726F722120456D707479003230257D
:10168C003032642F253032642F25303264202025EF
:10169C003032643A25303264202025642E25640DC6
:1016AC000A0056616C756573203D25640040253039
:1016BC0032642E253032642E2530326420253032AF
:1016CC00643A25303264004D656D6F727920526535
:1016DC00736574004572726F7221204E6F742065B1
:1016EC006D707479004F757470757420436F6D70E4
:1016FC006C657465004F757470757420456E64006C
:10170C005265636F7264696E6720456E64004D6F3D
:10171C006E00547565005765640054687500467218
:10172C0069005361740053756E0045727200FE01BE
:10173C00020206020A020E02120216021A021F1CF2
:0A174C001F1E1F1E1F1F1E1F1E1F61
:00000001FF
