:100000001CC05DC067C021C020C01FC01EC01DC075
:100010001CC01BC01AC019C018C067C016C015C0CC
:1000200014C013C012C011C010C00FC00EC00DC04C
:100030000CC00BC032363231390011241FBECFEF55
:10004000D4E0DEBFCDBF1ED062C0DACF5298539845
:100050005A9A5B9A209A219A229AE9E6F0E08081E6
:1000600088608083808182608083E89AE99AE1E8F1
:10007000F0E0808184608083EFE6F0E08081816041
:1000800080830895E3DF789424EC39E048EC50E075
:1000900062E005C0CA010197F1F7215030402115F7
:1000A0003105C1F784EC99E0FA013197F1F7019736
:1000B000D9F785B1862785B924EC39E0EBCF1F92BB
:1000C0000F920FB60F921124289A0F900FBE0F9027
:1000D0001F9018951F920F920FB60F921124289817
:1000E0000F900FBE0F901F9018951F920F920FB692
:1000F0000F9211248F939F9385B194E0892785B93E
:100100009F918F910F900FBE0F901F901895F894AC
:02011000FFCF1F
:00000001FF
