:100000001CC023C022C021C020C01FC01EC01DC0F4
:100010001CC01BC01AC019C018C017C016C015C01C
:1000200014C013C012C011C010C00FC00EC00DC04C
:100030000CC00BC032363231390011241FBECFEF55
:10004000D4E0DEBFCDBF1AD0D6C0DACF2098289A30
:10005000219A229A239A3B984398ECE7F0E0108289
:10006000808180648083808183608083EAE7F0E020
:1000700086E080838081806E80830895E7DF8091B1
:100080007800909179008A5A924018F0299A2A981B
:1000900009C080917800909179008555914020F0B9
:1000A0002A9A29982B98EBCF2B9A2A982998E7CF50
:1000B0009BB19F709BB99BB1807F892B8BB95B9A59
:1000C00085E38A95F1F75B9808951F93182F5A9A44
:1000D000EFDF812F8295807FEBDF8AE78A95F1F74A
:1000E0001F9108951F93182F5A98E2DF812F829550
:1000F000807FDEDF80E78A95F1F71F91089581E028
:10010000F1DF80EA9FE00197F1F708950F931F93C5
:100110008AB18C6F8AB98BB183708BB980E395E714
:100120000197F1F780E3C4DF00E117E2C80101970E
:10013000F1F75B9A25E3822F8A95F1F75B9880EDC2
:1001400097E0FC013197F1F75B9A2A95F1F75B98FC
:100150000197F1F780E2ACDFC8010197F1F788E27F
:10016000C1DF8CE0BFDF86E0BDDFC9DF1F910F91EB
:10017000089582E0B7DF80EA9FE00197F1F70895E4
:10018000623061F0633018F4613071F405C063309F
:1001900039F0643049F406C0805805C0805403C06B
:1001A000805701C080539EDF0895CF93DF93EC0109
:1001B00002C021968ADF88818823D9F7DF91CF9109
:1001C00008950F931F93CF93DF938B01880F880FB0
:1001D000880F806487DFC0E0D0E0F801EC0FFD1FDE
:1001E000808173DF2196C830D105B9F7DF91CF91B7
:0A01F0001F910F910895F894FFCFBE
:00000001FF
