:100000001CC023C022C021C020C01FC01EC01DC0F4
:100010001CC01BC01AC019C018C017C016C015C01C
:1000200014C013C012C011C010C00FC00EC00DC04C
:100030000CC00BC032363231390011241FBECFEF55
:10004000D4E0DEBFCDBF0AD022C0DACF5298539899
:100050005A9A5B9A209A219A229A0895F7DF28ECFF
:1000600030E0299A84EC99E0F9013197F1F7019792
:10007000D9F7299884EC99E0F9013197F1F70197C4
:10008000D9F74A9B289A4B99ECCF2898EACFF89455
:02009000FFCFA0
:00000001FF
