:100000001CC036C035C034C033C032C031C030C06F
:100010002FC02EC02DC02CC02BC02AC029C028C084
:1000200027C026C025C024C023C022C021C020C0B4
:100030001FC01EC032363231390011241FBECFEF2F
:10004000D4E0DEBFCDBF12E0A0E0B1E0E0EAF4E131
:1000500002C005900D92A230B107D9F712E0A2E0DC
:10006000B2E001C01D92A031B107E1F76BD516CA0D
:10007000C7CF23B1A82FB0E030E020953095082EEF
:1000800002C0359527950A94E2F720FF1EC084EF41
:1000900091E028EC30E0F9013197F1F70197D9F7B9
:1000A00083B190E0809590950A2E02C09595879532
:1000B0000A94E2F780FF0EC0FD01EE5FFD4F8081E4
:1000C000882341F481E080830895AE5FBD4F1C9288
:1000D00080E0089580E00895282F22952F709AE0FF
:1000E000299F900111248F70820F0895482F6AE094
:1000F000ADD6282F30E084E0220F331F8A95E1F738
:10010000842FA4D6892F822B08951F93DF93CF933A
:10011000CDB7DEB72C970FB6F894DEBF0FBECDBFBC
:10012000DE011196E6EFF1E08CE001900D92815036
:10013000E1F790910A02892F865F80930A028C333F
:1001400008F447C0925390930A0280910B028F5F8C
:1001500080930B028C33E8F110920B0280910C0219
:100160008F5F80930C028831A0F110920C024091B5
:100170000E024F5F40930E0210910D02212F30E0CE
:10018000C90160E971E082D6892B49F02370307093
:10019000232B39F4812F64E659D6992311F08DE190
:1001A0008A8390910902FE01E90FF11D8081841775
:1001B00030F481E080930E029F5F9093090280915A
:1001C00009028C3030F081E0809309021F5F1093A8
:1001D0000D022C960FB6F894DEBF0FBECDBFCF91A7
:1001E000DF911F91089560E020E030E040E050E0B2
:1001F00080917A00806C80937A0080917A0086FDED
:10020000FCCF8091780090917900A0E0B0E0280FB9
:10021000391F4A1F5B1F6F5F603851F795E0569595
:100220004795379527959A95D1F724543540404006
:100230005040CA01B9012BE130E040E050E0E7D581
:100240002AE030E040E050E034D6C9010895AF9292
:10025000BF92DF92EF92FF920F931F93DF93CF93A2
:10026000CDB7DEB760970FB6F894DEBF0FBECDBF37
:10027000D82E5B01DFD48DB79EB708970FB6F894E0
:100280009EBF0FBE8DBFEDB7FEB731968E010F5FDB
:100290001F4FADB7BEB712961C930E93119728E06F
:1002A000E22EF12CF382E28280E091E09583848358
:1002B000D682178220D68DB79EB708960FB6F894CF
:1002C0009EBF0FBE8DBF80E061E0F5D4C80108D5A8
:1002D00088E061E0F0D4ADB7BEB71A970FB6F894D6
:1002E000BEBF0FBEADBFEDB7FEB7319612961C93E1
:1002F0000E931197F382E28285E091E095838483E7
:10030000C5016AE070E0AED577836683C5016AE017
:1003100070E0A8D591878087EED58DB79EB70A96F5
:100320000FB6F8949EBF0FBE8DBFC801D9D480E030
:1003300062E0C1D4ADB7BEB71C970FB6F894BEBF8C
:100340000FBEADBFEDB7FEB7319612961C930E935C
:10035000119780E190E0938382838DE091E0958313
:10036000848380910C028683178280910B028087A0
:10037000118680910A0282871386BDD58DB79EB7FC
:100380000C960FB6F8949EBF0FBE8DBFC801A8D4BF
:1003900060960FB6F894DEBF0FBECDBFCF91DF9150
:1003A0001F910F91FF90EF90DF90BF90AF90089555
:1003B000BF92CF92DF92EF92FF920F931F93DF9342
:1003C000CF93CDB7DEB728970FB6F894DEBF0FBE38
:1003D000CDBFB82E6B012ED48CE191E081D48DB7C6
:1003E0009EB708970FB6F8949EBF0FBE8DBFEDB7AE
:1003F000FEB731968E010F5F1F4FADB7BEB7129695
:100400001C930E93119738E0E32EF12CF382E282D5
:1004100080E091E095838483B68217826CD58DB796
:100420009EB708960FB6F8949EBF0FBE8DBF80E0B2
:1004300062E041D4C80154D4ADB7BEB71A970FB625
:10044000F894BEBF0FBEADBFEDB7FEB731961296A2
:100450001C930E931197F382E28285E091E09583DD
:100460008483C6016AE070E0FDD477836683C601A9
:100470006AE070E0F7D4918780873DD58DB79EB74D
:100480000A960FB6F8949EBF0FBE8DBF88E062E05B
:1004900012D4C80125D428960FB6F894DEBF0FBE3B
:1004A000CDBFCF91DF911F910F91FF90EF90DF9023
:1004B000CF90BF900895CF92DF92EF92FF920F936B
:1004C0001F93DF93CF93CDB7DEB760970FB6F89445
:1004D000DEBF0FBECDBF6C018DB79EB70E970FB6B6
:1004E000F8949EBF0FBE8DBFEDB7FEB731968E015B
:1004F0000F5F1F4FADB7BEB712961C930E931197A7
:1005000040E1E42EF12CF382E2828EE291E09583C9
:10051000848380910C028683178280910B028087EE
:10052000118680910A028287138680910D0284874A
:100530001586E1D48DB79EB70E960FB6F8949EBF80
:100540000FBE8DBF77D3C801CBD3ADB7BEB71E9753
:100550000FB6F894BEBF0FBEADBFEDB7FEB7319674
:1005600012961C930E931197F382E28285E491E038
:100570009583848380910E0286831782809109027D
:1005800080871186C6016AE070E06CD47387628749
:10059000C6016AE070E066D495878487ACD48DB7D5
:1005A0009EB70E960FB6F8949EBF0FBE8DBF80E02B
:1005B00062E081D3C80194D360960FB6F894DEBF91
:1005C0000FBECDBFCF91DF911F910F91FF90EF90A4
:1005D000DF90CF900895FF920F931F93F82E092F6D
:1005E000162F80EAE0D3882339F4812FDFD3802FC0
:1005F000DDD38F2DDBD303D480E29EE40197F1F7A6
:100600001F910F91FF9008950F931F93082F162F9E
:1006100080EAC9D3882329F4812FC8D3802FC6D379
:10062000EED380E29EE40197F1F71F910F910895B8
:100630000F931F93182F062F80EDB5D3882329F42D
:10064000812FB4D3802FB2D3DAD31F910F910895A5
:100650001F93182F80EAA7D3882319F4812FA6D3DC
:10066000CED381EAB5D3882319F4B5D3182FBDD3DF
:10067000312F20E0280F311DC9011F9108951F93CC
:10068000182F80EA90D3882319F4812F8FD3B7D302
:1006900081EA9ED3882309F4A8D31F9108959F92DD
:1006A000AF92BF92CF92DF92EF92FF920F931F9380
:1006B000DF93CF93CDB7DEB760970FB6F894DEBF68
:1006C0000FBECDBF80E0DBDF882371F4B3D288E5B5
:1006D00091E006D380E197E228EC30E0F901319710
:1006E000F1F70197D9F7D2C080E0C9DF982E81E0F9
:1006F000C6DF80930D0282E0C2DF082F82958F70E3
:100700008093090283E0BBDF10E00F701070000FD0
:10071000111F982F991F9927991F902B90930E02C4
:100720008F7780930C0284E0AADF80930B0285E030
:10073000A6DF80930A0286E08BDF6C017BD28DB747
:100740009EB708970FB6F8949EBF0FBE8DBFEDB74A
:10075000FEB731968E010F5F1F4FADB7BEB7129631
:100760001C930E93119770E1E72EF12CF382E28235
:1007700085E691E09583848396821782BCD38DB7FA
:100780009EB708960FB6F8949EBF0FBE8DBF80E04F
:1007900061E091D2C801A4D280E062E08CD2ADB712
:1007A000BEB752970FB6F894BEBF0FBEADBFEDB740
:1007B000FEB7319612961C930E931197F382E28244
:1007C00080E791E09583848380910E02868317826F
:1007D000809109028087118680910D02828713869D
:1007E00080910C028487158680910B02868717867C
:1007F00080910A02808B118A7ED38DB79EB7429674
:100800000FB6F8949EBF0FBE8DBFC80169D201E03C
:1008100060E5A62E63ECB62E58ECE52EF12C189967
:100820001AC0199918C0C5010197F1F7189913C09A
:10083000199911C080E060E0E7DEFCD18FE891E01B
:100840004FD280E197E228EC30E0F9013197F1F7DF
:100850000197D9F71BC081E00CDC8823B9F409DCCF
:100860008823E9F29016D8F284EF91E0F7013197EE
:10087000F1F70197D9F7802FB601E9DC0F5F45DC6E
:10088000802F880F8C5FE4DE6C01C9CF60960FB6B5
:10089000F894DEBF0FBECDBFCF91DF911F910F91B6
:1008A000FF90EF90DF90CF90BF90AF909F90089512
:1008B0001F9380ED78D2882311F081E056C080E04C
:1008C00075D280ED85D287D2282F2F7722952F7071
:1008D0001AE0219F900111248F70820F80930A02E9
:1008E0007AD2282F22952F70219F900111248F708A
:1008F000820F80930B026FD2282F2F7322952F70B7
:10090000219F900111248F70820F80930C0263D27B
:10091000282F22952F70219F900111248F70820F14
:1009200080930F0258D2282F22952F70219F90017B
:1009300011248F70820F80930E024DD2282F2295A2
:100940002F70219F900111248F70820F80930902D4
:100950004CD2282F22952F70219F900111248F7047
:10096000820F80930D024BD280E01F910895EF9289
:10097000FF920F931F93DF93CF9300D0CDB7DEB7D5
:1009800059D180E07CDE882369F08CE991E0A8D120
:1009900080E197E228EC30E0F9013197F1F7019717
:1009A000D9F75AC020DC7C0181E060E02DDE809127
:1009B0000D0261E029DE809109028295807F90918D
:1009C0000E029695892B62E01FDE80910E028795BC
:1009D0008827879590910C02892B63E015DE809122
:1009E0000B0264E011DE80910A0265E00DDEC701B2
:1009F00066E0F1DD81E0B701DBDC11E001E058DF0A
:100A000080910A026AE022D2992311F000E017C017
:100A10000023A1F41F5FE7DB9A838983812F60E0C5
:100A2000F3DD612F70E06E5F7F4F660F771F898166
:100A30009A81D1DD812F69817A81BADC01E0189B2E
:100A400002C081E005C083B190E0969587958170E2
:100A50001D3711F0882399F60F900F90CF91DF91F9
:100A60001F910F91FF90EF9008951F93182F80ED25
:100A70009AD1882311F010E007C0812F97D180ED23
:100A8000A7D1B3D1182FBBD1812F1F9108951F93E8
:100A900080E0EBDF182F80ED86D1882311F081E014
:100AA00027C080E083D117FF05C080910A021EDBBA
:100AB000806804C080910A0219DB8F7777D180911A
:100AC0000B0214DB73D180910C0210DB6FD180918B
:100AD0000F026CD180910E0209DB68D1809109026E
:100AE00005DB64D180910D0201DB60D188D180E00B
:100AF0001F9108951F93182F80E0B7DF112319F07D
:100B0000682F6F7702C0682F606880E091DD1F91C9
:100B1000089582E380930A028BE380930B0287E1BE
:100B200080930C028FE180930E028CE08093090287
:100B300084E180930D0284E080930F02A8DF81E0BE
:100B4000D9DF08950F931F93CF93DF9347D079D0C8
:100B500081E06AE016D188EC80937C0086E0809387
:100B60007A0080917A00806C80937A00D2DF28EE40
:100B700033E0C8ECD0E009C0CE010197F1F7215075
:100B8000304003C028EE33E0F7CF21153105A1F73F
:100B90002ADB8C018DDEC8018EDC80E06ADA8823D6
:100BA00061F07DDD47D08DEA91E09AD080E197E257
:100BB000FE013197F1F70197D9F781E05ADA8823DE
:100BC00009F3D5DE37D088EB91E08AD080E197E257
:100BD000FE013197F1F70197D9F7D4CF20982198EA
:100BE000289A299A08959BB19F709BB99BB1807FE9
:100BF000892B8BB95B9A85E38A95F1F75B98089509
:100C00001F93182F5A9AEFDF812F8295807FEBDF99
:100C10008AE78A95F1F71F9108951F93182F5A9824
:100C2000E2DF812F8295807FDEDF80E78A95F1F712
:100C30001F91089581E0F1DF80EA9FE00197F1F7CD
:100C400008950F931F938AB18C6F8AB98BB183700B
:100C50008BB980E395E70197F1F780E3C4DF00E10A
:100C600017E2C8010197F1F75B9A25E3822F8A9575
:100C7000F1F75B9880ED97E0FC013197F1F75B9A13
:100C80002A95F1F75B980197F1F780E2ACDFC80194
:100C90000197F1F788E2C1DF8CE0BFDF86E0BDDFBE
:100CA000C9DF1F910F91089582E0B7DF80EA9FE0CE
:100CB0000197F1F70895623061F0633018F4613004
:100CC00071F405C0633039F0643049F406C08058CF
:100CD00005C0805403C0805701C080539EDF089533
:100CE000CF93DF93EC0102C021968ADF88818823AD
:100CF000D9F7DF91CF9108950F931F93CF93DF938F
:100D00008B01880F880F880F806487DFC0E0D0E0F8
:100D1000F801EC0FFD1F808173DF2196C830D105EB
:100D2000B9F7DF91CF911F910F910895982F84EA21
:100D30008093BC008091BC0087FFFCCF8091B900FC
:100D4000887F883039F08091B900887F803111F038
:100D500081E008959093BB0084E88093BC0080916B
:100D6000BC0087FFFCCF8091B900887F883139F0C3
:100D70008091B900887F803411F082E0089580E08E
:100D800008956B3008F46BE03D983C98882319F087
:100D9000459A449A02C0459844986093B80081E00F
:100DA0008093B90008958E7FC1DF08958093BB00C2
:100DB00084E88093BC008091BC0087FFFCCF8091C9
:100DC000B90090E0887F883209F091E0892F08957A
:100DD0008160ACDF089584EC8093BC008091BC00FE
:100DE00087FFFCCF8091BB00089584E88093BC000E
:100DF0008091BC0087FFFCCF8091BB00089584E9FF
:100E00008093BC008091BC0084FDFCCF0895629F5C
:100E1000D001739FF001829FE00DF11D649FE00DF2
:100E2000F11D929FF00D839FF00D749FF00D659F53
:100E3000F00D9927729FB00DE11DF91F639FB00D52
:100E4000E11DF91FBD01CF0111240895991B79E01F
:100E500004C0991F961708F0961B881F7A95C9F74A
:100E600080950895AA1BBB1B51E107C0AA1FBB1F99
:100E7000A617B70710F0A61BB70B881F991F5A9526
:100E8000A9F780959095BC01CD01089597FB092E97
:100E900007260AD077FD04D0E5DF06D000201AF43B
:100EA000709561957F4F0895F6F7909581959F4FC6
:100EB0000895A1E21A2EAA1BBB1BFD010DC0AA1F9B
:100EC000BB1FEE1FFF1FA217B307E407F50720F0B3
:100ED000A21BB30BE40BF50B661F771F881F991F2E
:100EE0001A9469F760957095809590959B01AC0177
:100EF000BD01CF010895AEE0B0E0E0E8F7E0A5C2A3
:100F00000D891E898F89988D97FF02C080E090E837
:100F100001979E838D831A83098386E08C839E01CB
:100F2000255E3F4FCE010196698D7A8DA90111D0C2
:100F30004D815E8157FD0AC02F81388542175307C6
:100F40000CF49A01020F131FF80110822E96E4E0B0
:100F500098C2ABE0B0E0EEEAF7E069C23C012B01D9
:100F60005A01FC0117821682838181FD03C06FEF55
:100F70007FEFB9C19AE0892E1E010894211C311C13
:100F8000F3012381F20123FD859123FF81912F013C
:100F9000882309F4A5C1853239F423FD859123FF07
:100FA00081912F01853221F490E0B301B6D1E8CFD1
:100FB000982FFF24EE249924FFE1FF15D0F09B32F7
:100FC00069F09C3228F4903259F0933291F40EC0BB
:100FD0009D3249F0903369F441E024C052E0F52A93
:100FE00084E0F82A28C098E0F92A25C0E0E1FE2A2A
:100FF00022C0F7FC29C0892F80538A3070F4F6FE96
:1010000005C0989C902C1124980E15C0E89CE02CEB
:101010001124E80EF0E2FF2A0EC09E3229F4F6FCFD
:101020005FC140E4F42A07C09C3619F450E8F52A61
:1010300002C0983649F4F20123FD959123FF919166
:101040002F01992309F0B8CF892F8554833018F0E8
:101050008052833038F444E050E0A40EB51E5FE3C4
:1010600059830FC0933631F0933779F0933509F0F7
:1010700052C01FC0F5018081898342E050E0A40E78
:10108000B51E610101E010E011C0F501C080D18002
:10109000F6FC03C06FEF7FEF02C0692D70E042E005
:1010A00050E0A40EB51EC6012DD18C015FE7F522DC
:1010B00013C0F501C080D180F6FC03C06FEF7FEF55
:1010C00002C0692D70E042E050E0A40EB51EC601DA
:1010D0000ED18C0150E8F52AF3FE06C018C080E25C
:1010E00090E0B3011AD1EA948E2D90E00817190709
:1010F000B0F30DC0F601F7FC8591F7FE81916F0109
:1011000090E0B3010AD1E110EA94015010400115BA
:10111000110581F7E2C0943611F0993661F5F7FEBA
:1011200008C0F501208131814281538184E090E043
:101130000AC0F501808191819C01442737FD4095CB
:10114000542F82E090E0A80EB91E9FE6F92257FFC7
:1011500009C050954095309521953F4F4F4F5F4FB7
:10116000E0E8FE2ACA01B901A1012AE030E001D17C
:10117000D82ED2183FC0953729F41F2D1F7E2AE0A4
:1011800030E01DC01F2D197F9F3661F0903720F48D
:10119000983509F0A5C00FC0903739F0983709F09D
:1011A0009FC004C028E030E00AC0106114FD146044
:1011B00020E130E004C014FD166020E132E017FFAA
:1011C00008C0F501608171818281938144E050E023
:1011D00008C0F50180819181BC0180E090E042E08F
:1011E00050E0A40EB51EA101C4D0D82ED2188FE7AE
:1011F000F82EF122F6FE0BC05EEFF522D91438F47A
:10120000F4FE07C0F2FC05C08FEEF82202C01D2DCF
:1012100001C0192DF4FE0DC0FE01ED0DF11D808100
:10122000803319F499EEF92208C01F5FF2FE05C061
:1012300003C08F2D867809F01F5F0F2DF3FC13C0BC
:10124000F0FE0EC01E1510F09D2C0AC09D2C9E0CA9
:10125000911A1E2D05C080E290E0B3015ED01F5FA1
:101260001E15C8F304C01E1510F4E11A01C0EE24C7
:1012700004FF0EC080E390E0B3014FD002FF1BC01B
:1012800001FD03C088E790E00EC088E590E00BC048
:10129000802F867881F001FF02C08BE201C080E2DE
:1012A000F7FC8DE290E0B30138D005C080E390E018
:1012B000B30133D09A94D914C8F3DA94F101ED0D47
:1012C000F11D808190E0B30128D0DD20B1F705C089
:1012D00080E290E0B30121D0EA94EE20C9F750CE2D
:1012E000F30166817781CB012B96E2E1BCC0FC0162
:1012F0000590615070400110D8F7809590958E0F41
:101300009F1F0895FC016150704001900110D8F7B3
:10131000809590958E0F9F1F08950F931F93CF93E5
:10132000DF938C01EB018B8181FF1BC082FF0DC01D
:101330002E813F818C819D812817390764F4E881D3
:10134000F9810193F983E88306C0E885F985802F48
:101350000995892B31F48E819F8101969F838E831D
:1013600002C00FEF1FEFC801DF91CF911F910F91C6
:101370000895FA01AA27283051F1203181F1E8942B
:101380006F936E7F6E5F7F4F8F4F9F4FAF4FB1E078
:101390003ED0B4E03CD0670F781F891F9A1FA11D73
:1013A000680F791F8A1F911DA11D6A0F711D811D74
:1013B000911DA11D20D009F468943F912AE0269F39
:1013C00011243019305D3193DEF6CF010895462F98
:1013D0004770405D4193B3E00FD0C9F7F6CF462F79
:1013E0004F70405D4A3318F0495D31FD40524193E2
:1013F00002D0A9F7EACFB4E0A6959795879577959F
:101400006795BA95C9F700976105710508959B0125
:10141000AC010A2E06945795479537952795BA95AE
:10142000C9F7620F731F841F951FA01D08952F9287
:101430003F924F925F926F927F928F929F92AF9264
:10144000BF92CF92DF92EF92FF920F931F93CF93B1
:10145000DF93CDB7DEB7CA1BDB0B0FB6F894DEBF48
:101460000FBECDBF09942A88398848885F846E846E
:101470007D848C849B84AA84B984C884DF80EE80B8
:10148000FD800C811B81AA81B981CE0FD11D0FB6C1
:10149000F894DEBF0FBECDBFED010895F894FFCFE5
:1014A000693D25640025642E2564204300253032E3
:1014B000643A253032643A25303264005245434F55
:1014C0005244494E4720444154412E2E2E0025308F
:1014D00032643A253032643A25303264202032308A
:1014E0002530326400253032642E253032642020CD
:1014F00025642E25642043004572726F72212045B9
:101500006D7074790056616C756573203D256400BB
:1015100040253032642E253032642E25303264204E
:10152000253032643A253032643A25303264004D39
:10153000656D6F7279205265736574004572726FC4
:101540007221204E6F7420656D707479004F757430
:1015500070757420456E64005265636F7264696EC5
:101560006720456E64004D6F6E00547565005765C9
:1015700064005468750046726900536174005375C5
:101580006E0045727200C601CA01CE01D201D601B9
:10159000DA01DE01E2011F1C1F1E1F1E1F1F1E1F7E
:0215A0001E1F0C
:00000001FF
